[
  {
    "txid": "aa535235e0f970126bcbd7dd670a841aea82f9de68d418b98cdcb4b3123e1235",
    "hash": "4044a25ae3fb93b3fb523d6ced4a6e84bdb37b1f7a450e56abad906051e915c6",
    "version": 1,
    "size": 339,
    "vsize": 312,
    "weight": 1248,
    "locktime": 0,
    "vin": [
      {
        "coinbase": "03403e0c40012f627463636f6d2f3634fabe6d6d5b68aefc8fae28dd684c90385193234b0d8a4a41bda122dd94c91191de581ef302000000000000009f2eba2eeb41aed3f52a2a73e2b59405401029fd2b1e000000000000",
        "txinwitness": [
          "0000000000000000000000000000000000000000000000000000000000000000"
        ],
        "sequence": 4294967295
      }
    ],
    "vout": [
      {
        "value": 5.46e-6,
        "n": 0,
        "scriptPubKey": {
          "asm": "0 ce9bcc576258ae593253063bf4ea971969e2b33f",
          "desc": "addr(bc1qe6duc4mztzh9jvjnqcalf65hr9579vel8mv9ya)#72hgn4m8",
          "hex": "0014ce9bcc576258ae593253063bf4ea971969e2b33f",
          "address": "bc1qe6duc4mztzh9jvjnqcalf65hr9579vel8mv9ya",
          "type": "witness_v0_keyhash"
        }
      },
      {
        "value": 6.41895855,
        "n": 1,
        "scriptPubKey": {
          "asm": "OP_DUP OP_HASH160 897fd9c4f7184fcf71c5535f70e1e47244d3fd85 OP_EQUALVERIFY OP_CHECKSIG",
          "desc": "addr(1DY2jW2bpsxpwfb5fHVHrgtAyoEVpU8hxZ)#v0pe9hxj",
          "hex": "76a914897fd9c4f7184fcf71c5535f70e1e47244d3fd8588ac",
          "address": "1DY2jW2bpsxpwfb5fHVHrgtAyoEVpU8hxZ",
          "type": "pubkeyhash"
        }
      },
      {
        "value": 0,
        "n": 2,
        "scriptPubKey": {
          "asm": "OP_RETURN aa21a9ed8d20bef4efc52dd338780de55c36fbe583e09dfa33ff5d446cbd7a746f1f88d6",
          "desc": "raw(6a24aa21a9ed8d20bef4efc52dd338780de55c36fbe583e09dfa33ff5d446cbd7a746f1f88d6)#exgnacx4",
          "hex": "6a24aa21a9ed8d20bef4efc52dd338780de55c36fbe583e09dfa33ff5d446cbd7a746f1f88d6",
          "type": "nulldata"
        }
      },
      {
        "value": 0,
        "n": 3,
        "scriptPubKey": {
          "asm": "OP_RETURN 52534b424c4f434b3a7b6979d0aaef3d41df241bcc0fd4120bec828ae4ea71b967703d4b2400548b3e",
          "desc": "raw(6a2952534b424c4f434b3a7b6979d0aaef3d41df241bcc0fd4120bec828ae4ea71b967703d4b2400548b3e)#sqafn8ay",
          "hex": "6a2952534b424c4f434b3a7b6979d0aaef3d41df241bcc0fd4120bec828ae4ea71b967703d4b2400548b3e",
          "type": "nulldata"
        }
      }
    ],
    "hex": "010000000001010000000000000000000000000000000000000000000000000000000000000000ffffffff5803403e0c40012f627463636f6d2f3634fabe6d6d5b68aefc8fae28dd684c90385193234b0d8a4a41bda122dd94c91191de581ef302000000000000009f2eba2eeb41aed3f52a2a73e2b59405401029fd2b1e000000000000ffffffff042202000000000000160014ce9bcc576258ae593253063bf4ea971969e2b33faf8d4226000000001976a914897fd9c4f7184fcf71c5535f70e1e47244d3fd8588ac0000000000000000266a24aa21a9ed8d20bef4efc52dd338780de55c36fbe583e09dfa33ff5d446cbd7a746f1f88d600000000000000002b6a2952534b424c4f434b3a7b6979d0aaef3d41df241bcc0fd4120bec828ae4ea71b967703d4b2400548b3e0120000000000000000000000000000000000000000000000000000000000000000000000000",
    "blockhash": "00000000000000000000a353e5108440f94b4011939f06b5988cae9f6028be29",
    "confirmations": 106388,
    "time": 1691584068,
    "blocktime": 1691584068
  },
  {
    "txid": "58fa6eb651e0c0f7aad9b141fcdcd08d66d587cc70c49367b3f31fa0ce1173c7",
    "hash": "35308e2c6ccc530a1fa25ef41c8d00e60ff556d060b885ac915c052d075b728d",
    "version": 2,
    "size": 194,
    "vsize": 113,
    "weight": 449,
    "locktime": 0,
    "vin": [
      {
        "txid": "9ca5f2c397387940338f23faba4021f3c5bbb18c7c61b109a6577b9be05db070",
        "vout": 81,
        "scriptSig": {
          "asm": "",
          "hex": ""
        },
        "txinwitness": [
          "304402204dca07b9de6aa7ea42dc13cfa261360fbfb807b7bcc94657781c4308a5c40ce902207b3d5e987a3b06c3c0d3d44d79751fd52969056cec0595e36140c7dbd0f4a1f601",
          "026387d8d68fb3deafce92b5d8a0295691edfc131d6568c59c4ed56fabf5ee1a10"
        ],
        "sequence": 4294967295
      }
    ],
    "vout": [
      {
        "value": 0.0093502,
        "n": 0,
        "scriptPubKey": {
          "asm": "OP_DUP OP_HASH160 9c08058bf18404fe70150761e0f4f786e733b7b6 OP_EQUALVERIFY OP_CHECKSIG",
          "desc": "addr(1FE22HHKVqT8WHB5TgU2Dgrrt4bewujGcf)#88vmcnau",
          "hex": "76a9149c08058bf18404fe70150761e0f4f786e733b7b688ac",
          "address": "1FE22HHKVqT8WHB5TgU2Dgrrt4bewujGcf",
          "type": "pubkeyhash"
        }
      }
    ],
    "hex": "0200000000010170b05de09b7b57a609b1617c8cb1bbc5f32140bafa238f3340793897c3f2a59c5100000000ffffffff016c440e00000000001976a9149c08058bf18404fe70150761e0f4f786e733b7b688ac0247304402204dca07b9de6aa7ea42dc13cfa261360fbfb807b7bcc94657781c4308a5c40ce902207b3d5e987a3b06c3c0d3d44d79751fd52969056cec0595e36140c7dbd0f4a1f60121026387d8d68fb3deafce92b5d8a0295691edfc131d6568c59c4ed56fabf5ee1a1000000000",
    "blockhash": "00000000000000000000a353e5108440f94b4011939f06b5988cae9f6028be29",
    "confirmations": 106385,
    "time": 1691584068,
    "blocktime": 1691584068
  },
  {
    "txid": "702e4e6fb0e7e6aa5575957a470eacab298dc0ad275c438f5067f412d0804b99",
    "hash": "1bbd502b30458b5fdba25130d5163b265e020d5f7adad8cf790c5b5880abbdb7",
    "version": 1,
    "size": 382,
    "vsize": 192,
    "weight": 766,
    "locktime": 0,
    "vin": [
      {
        "txid": "a31b6b825cda88fb53a21fea82d41e43ebed163f769069d37660892d4b9348ec",
        "vout": 2,
        "scriptSig": {
          "asm": "",
          "hex": ""
        },
        "txinwitness": [
          "",
          "304402205d88cd65d57436e63d73c23ed1b8c99bf5df572272619799cb32b5473d9b045d02203034db1c487c951113f8cd898a7372dbc8898d91841bfb4ba917f5fdf13c784401",
          "304402201f828808197279cdfe77e8276d5866b126e9dfab24ee58119230fecacc496b40022043e44f80ca4bf58b2ab9dfa4f3c76c2e3486c80d76a96a526e8b90981080631101",
          "52210375e00eb72e29da82b89367947f29ef34afb75e8654f6ea368e0acdfd92976b7c2103a1b26313f430c4b15bb1fdce663207659d8cac749a0e53d70eff01874496feff2103c96d495bfdd5ba4145e3e046fee45e84a8a48ad05bd8dbb395c011a32cf9f88053ae"
        ],
        "sequence": 4294967295
      }
    ],
    "vout": [
      {
        "value": 0.11562495,
        "n": 0,
        "scriptPubKey": {
          "asm": "OP_DUP OP_HASH160 e804037be23ec042cf66a6e4711bef14fba18e2f OP_EQUALVERIFY OP_CHECKSIG",
          "desc": "addr(1N9naNkrLJBrtAVZ3kZKhHdtx5r9Ct5jFa)#6zjeumxa",
          "hex": "76a914e804037be23ec042cf66a6e4711bef14fba18e2f88ac",
          "address": "1N9naNkrLJBrtAVZ3kZKhHdtx5r9Ct5jFa",
          "type": "pubkeyhash"
        }
      },
      {
        "value": 2.23371555,
        "n": 1,
        "scriptPubKey": {
          "asm": "0 701a8d401c84fb13e6baf169d59684e17abd9fa216c8cc5b9fc63d622ff8c58d",
          "desc": "addr(bc1qwqdg6squsna38e46795at95yu9atm8azzmyvckulcc7kytlcckxswvvzej)#ftpgzygj",
          "hex": "0020701a8d401c84fb13e6baf169d59684e17abd9fa216c8cc5b9fc63d622ff8c58d",
          "address": "bc1qwqdg6squsna38e46795at95yu9atm8azzmyvckulcc7kytlcckxswvvzej",
          "type": "witness_v0_scripthash"
        }
      }
    ],
    "hex": "01000000000101ec48934b2d896076d36990763f16edeb431ed482ea1fa253fb88da5c826b1ba30200000000ffffffff02ff6db000000000001976a914e804037be23ec042cf66a6e4711bef14fba18e2f88ac2361500d00000000220020701a8d401c84fb13e6baf169d59684e17abd9fa216c8cc5b9fc63d622ff8c58d040047304402205d88cd65d57436e63d73c23ed1b8c99bf5df572272619799cb32b5473d9b045d02203034db1c487c951113f8cd898a7372dbc8898d91841bfb4ba917f5fdf13c78440147304402201f828808197279cdfe77e8276d5866b126e9dfab24ee58119230fecacc496b40022043e44f80ca4bf58b2ab9dfa4f3c76c2e3486c80d76a96a526e8b909810806311016952210375e00eb72e29da82b89367947f29ef34afb75e8654f6ea368e0acdfd92976b7c2103a1b26313f430c4b15bb1fdce663207659d8cac749a0e53d70eff01874496feff2103c96d495bfdd5ba4145e3e046fee45e84a8a48ad05bd8dbb395c011a32cf9f88053ae00000000",
    "blockhash": "00000000000000000000a353e5108440f94b4011939f06b5988cae9f6028be29",
    "confirmations": 106496,
    "time": 1691584068,
    "blocktime": 1691584068
  },
  {
    "txid": "d9d8ebd7a845e037d3510087e41103875a3b004f384c2aac271c166c57febc3b",
    "hash": "2962d87ac805ca502dccd4cbd97e03b8960ea77c9a3727630cdd90ee7a7db5ab",
    "version": 1,
    "size": 299,
    "vsize": 168,
    "weight": 671,
    "locktime": 802312,
    "vin": [
      {
        "txid": "f713eaf72312659b3bd258bcb4902bac633f47905e27a608790928ff67afa7aa",
        "vout": 0,
        "scriptSig": {
          "asm": "",
          "hex": ""
        },
        "txinwitness": [
          "3044022061cf35150b89faf771735fc923fe7c4f1d646cd72df73033777392ea74bd5c8e0220072a187c3933483b486bb20e8fa0317543a46a0bcadb4c54ab514feb5992a3d701",
          "024a39d1864bf09b595dd01108c9c635af2f5219fc3a28abe244534e57f65007f7"
        ],
        "sequence": 4294967293
      },
      {
        "txid": "bfca50ed53ca6c502a971037ed4e16741e3ff8b4ed590eda571f2a7d8f0a9b1e",
        "vout": 1,
        "scriptSig": {
          "asm": "",
          "hex": ""
        },
        "txinwitness": [
          "712657515641d76f6074fde36536f1bb07a942b16bfac60188126ac8d5caae093d1c73ff77a7d77fccea8ae566f550de8924e0f1348ee2fbbdb91233ea150cf3"
        ],
        "sequence": 4294967293
      }
    ],
    "vout": [
      {
        "value": 0.68451749,
        "n": 0,
        "scriptPubKey": {
          "asm": "OP_HASH160 cc268d6aa314af0d107c530897010281daf5f5cc OP_EQUAL",
          "desc": "addr(3LJTxLzN9i4teGWeMokS2gX5iJnixWttw1)#56ntyvuh",
          "hex": "a914cc268d6aa314af0d107c530897010281daf5f5cc87",
          "address": "3LJTxLzN9i4teGWeMokS2gX5iJnixWttw1",
          "type": "scripthash"
        }
      }
    ],
    "hex": "01000000000102aaa7af67ff28097908a6275e90473f63ac2b90b4bc58d23b9b651223f7ea13f70000000000fdffffff1e9b0a8f7d2a1f57da0e59edb4f83f1e74164eed3710972a506cca53ed50cabf0100000000fdffffff01a57d14040000000017a914cc268d6aa314af0d107c530897010281daf5f5cc8702473044022061cf35150b89faf771735fc923fe7c4f1d646cd72df73033777392ea74bd5c8e0220072a187c3933483b486bb20e8fa0317543a46a0bcadb4c54ab514feb5992a3d70121024a39d1864bf09b595dd01108c9c635af2f5219fc3a28abe244534e57f65007f70140712657515641d76f6074fde36536f1bb07a942b16bfac60188126ac8d5caae093d1c73ff77a7d77fccea8ae566f550de8924e0f1348ee2fbbdb91233ea150cf3083e0c00",
    "blockhash": "00000000000000000000a353e5108440f94b4011939f06b5988cae9f6028be29",
    "confirmations": 106496,
    "time": 1691584068,
    "blocktime": 1691584068
  },
  {
    "txid": "16a7875987d0be57af2283de4c38f0f4b1ad9c65b936cbc36e101665d8dff891",
    "hash": "16a7875987d0be57af2283de4c38f0f4b1ad9c65b936cbc36e101665d8dff891",
    "version": 1,
    "size": 188,
    "vsize": 188,
    "weight": 752,
    "locktime": 0,
    "vin": [
      {
        "txid": "0ceb0892b802e3570951598fc6bc0753bf93f6f7e6c2c41540ecefc4c8eb5236",
        "vout": 6,
        "scriptSig": {
          "asm": "304402202955e3df921fa6893b898db5117ec92441757d90b485ed3015d427a1aa7631a6022063859ae9fb657b3ceb28c1771076da62e967b3872db6599a08ac982f62ef6781[ALL] 037a35df3a9314039a2361bd37df3ee846c7a259a7c83f522704517bb7e8748f1e",
          "hex": "47304402202955e3df921fa6893b898db5117ec92441757d90b485ed3015d427a1aa7631a6022063859ae9fb657b3ceb28c1771076da62e967b3872db6599a08ac982f62ef67810121037a35df3a9314039a2361bd37df3ee846c7a259a7c83f522704517bb7e8748f1e"
        },
        "sequence": 4294967295
      }
    ],
    "vout": [
      {
        "value": 0.00060728,
        "n": 0,
        "scriptPubKey": {
          "asm": "0 b9edb07641abc03085f3971e48c6cafbdc854baf",
          "desc": "addr(bc1qh8kmqajp40qrpp0nju0y33k2l0wg2ja0vx06eq)#95dqvh3j",
          "hex": "0014b9edb07641abc03085f3971e48c6cafbdc854baf",
          "address": "bc1qh8kmqajp40qrpp0nju0y33k2l0wg2ja0vx06eq",
          "type": "witness_v0_keyhash"
        }
      }
    ],
    "hex": "01000000013652ebc8c4efec4015c4c2e6f7f693bf5307bcc68f59510957e302b89208eb0c060000006a47304402202955e3df921fa6893b898db5117ec92441757d90b485ed3015d427a1aa7631a6022063859ae9fb657b3ceb28c1771076da62e967b3872db6599a08ac982f62ef67810121037a35df3a9314039a2361bd37df3ee846c7a259a7c83f522704517bb7e8748f1effffffff0138ed000000000000160014b9edb07641abc03085f3971e48c6cafbdc854baf00000000",
    "blockhash": "00000000000000000000a353e5108440f94b4011939f06b5988cae9f6028be29",
    "confirmations": 106496,
    "time": 1691584068,
    "blocktime": 1691584068
  },
  {
    "txid": "8e5ec46c1e24043b3890169a4d476c195cef5eec4bdb7b00804f8731ee81392c",
    "hash": "8e5ec46c1e24043b3890169a4d476c195cef5eec4bdb7b00804f8731ee81392c",
    "version": 1,
    "size": 1728,
    "vsize": 1728,
    "weight": 6912,
    "locktime": 0,
    "vin": [
      {
        "txid": "f28002af361cdfd1053071b730a19adca59dc1ce1d10fe917105d715c8a9caf6",
        "vout": 0,
        "scriptSig": {
          "asm": "3044022005c059272466eb985d7423242efb654b091d6f4f7ac6f22006a873abb5769f7d02201c37aad50ffcb5fd2ad4df83f722351ae0825345d5940400da2777c3c0264622[ALL] 0396caf2fc5b7526975c452d665804457fd287c73e25a0025fe59dd88a61c735db",
          "hex": "473044022005c059272466eb985d7423242efb654b091d6f4f7ac6f22006a873abb5769f7d02201c37aad50ffcb5fd2ad4df83f722351ae0825345d5940400da2777c3c026462201210396caf2fc5b7526975c452d665804457fd287c73e25a0025fe59dd88a61c735db"
        },
        "sequence": 4294967293
      },
      {
        "txid": "96745ea5d0f5227fb7922f11146ab86290e66c69a74c192690dde4b649f503fc",
        "vout": 0,
        "scriptSig": {
          "asm": "3045022100b00df4b0578ec22f76a368ddd9e2e7f6003e6ee7a5063d90e2b78e0829b555450220164f295fe4303bfc4a916945830ea7012bcb0d545c8e3610556e47d0a70d2c18[ALL] 0396caf2fc5b7526975c452d665804457fd287c73e25a0025fe59dd88a61c735db",
          "hex": "483045022100b00df4b0578ec22f76a368ddd9e2e7f6003e6ee7a5063d90e2b78e0829b555450220164f295fe4303bfc4a916945830ea7012bcb0d545c8e3610556e47d0a70d2c1801210396caf2fc5b7526975c452d665804457fd287c73e25a0025fe59dd88a61c735db"
        },
        "sequence": 4294967293
      },
      {
        "txid": "8acc393b95004ef4d4dd366c3a93b0633ae099e1de2acd6269f6be55f2de361b",
        "vout": 0,
        "scriptSig": {
          "asm": "30440220716c12d017cd42b646e3a7c324387660f65309aec185f92c25acf8631a10848802204e4e4c92656676f0add33dfab458c7abce4536a9f6ed00e2f5eac1173da9c1ca[ALL] 0396caf2fc5b7526975c452d665804457fd287c73e25a0025fe59dd88a61c735db",
          "hex": "4730440220716c12d017cd42b646e3a7c324387660f65309aec185f92c25acf8631a10848802204e4e4c92656676f0add33dfab458c7abce4536a9f6ed00e2f5eac1173da9c1ca01210396caf2fc5b7526975c452d665804457fd287c73e25a0025fe59dd88a61c735db"
        },
        "sequence": 4294967293
      },
      {
        "txid": "76eb44f4b4abc8e0f2c908195c0c689fa9ff1595a4b3df95c560b66f95424315",
        "vout": 0,
        "scriptSig": {
          "asm": "304402203dc44ca8ae7e61c2757e87af7f087122c0ae81541e3379a9b105f13bd24bf8e102206da4f3113cc0f0bb823bdc45cbb8361f74857e0362403e0b019e653aaa3672ac[ALL] 0396caf2fc5b7526975c452d665804457fd287c73e25a0025fe59dd88a61c735db",
          "hex": "47304402203dc44ca8ae7e61c2757e87af7f087122c0ae81541e3379a9b105f13bd24bf8e102206da4f3113cc0f0bb823bdc45cbb8361f74857e0362403e0b019e653aaa3672ac01210396caf2fc5b7526975c452d665804457fd287c73e25a0025fe59dd88a61c735db"
        },
        "sequence": 4294967293
      },
      {
        "txid": "4ea55a308e9ac526226dff3c8c1cbfceed1229d77419e7f148700a061d0bcc92",
        "vout": 0,
        "scriptSig": {
          "asm": "30450221008ebedcf877d2a5d4d4adc59daee2ce972c02e59512d73b645f2c321b2002b8b3022053a36c479a7d0a7387886032279b85e6277134131847d3c561502bd9c0e47f74[ALL] 0396caf2fc5b7526975c452d665804457fd287c73e25a0025fe59dd88a61c735db",
          "hex": "4830450221008ebedcf877d2a5d4d4adc59daee2ce972c02e59512d73b645f2c321b2002b8b3022053a36c479a7d0a7387886032279b85e6277134131847d3c561502bd9c0e47f7401210396caf2fc5b7526975c452d665804457fd287c73e25a0025fe59dd88a61c735db"
        },
        "sequence": 4294967293
      },
      {
        "txid": "25c5e98588d37df0f5a109c5a53c2903cba21a8cf3cffdb38f1da08a194624b4",
        "vout": 0,
        "scriptSig": {
          "asm": "3045022100bd0391fd59fdc8f3ea8bef09bd322cb39a3ef25f77ab86af14d35b471e0fecb002203b82882c23b36861c5b5d45f41ad563546e66a148bdca06d11fbdf23026cef41[ALL] 0396caf2fc5b7526975c452d665804457fd287c73e25a0025fe59dd88a61c735db",
          "hex": "483045022100bd0391fd59fdc8f3ea8bef09bd322cb39a3ef25f77ab86af14d35b471e0fecb002203b82882c23b36861c5b5d45f41ad563546e66a148bdca06d11fbdf23026cef4101210396caf2fc5b7526975c452d665804457fd287c73e25a0025fe59dd88a61c735db"
        },
        "sequence": 4294967293
      },
      {
        "txid": "71457a35d7de7fe43509832bfd3cb20d71b4eeefa94713ba344efbbe47f6a50e",
        "vout": 0,
        "scriptSig": {
          "asm": "30450221009c997e6005b6d8463c9f340f631970f6cfdc6d5e0ab8c7d8019afb2e4e2cb3910220391e2d4e8dfa5c676354171984fc34e871c16538692b1997b983209fd429cefa[ALL] 0396caf2fc5b7526975c452d665804457fd287c73e25a0025fe59dd88a61c735db",
          "hex": "4830450221009c997e6005b6d8463c9f340f631970f6cfdc6d5e0ab8c7d8019afb2e4e2cb3910220391e2d4e8dfa5c676354171984fc34e871c16538692b1997b983209fd429cefa01210396caf2fc5b7526975c452d665804457fd287c73e25a0025fe59dd88a61c735db"
        },
        "sequence": 4294967293
      },
      {
        "txid": "02aef9474725919feece72d23389d7e5dacdd032f01f32707053704ac9b729c8",
        "vout": 0,
        "scriptSig": {
          "asm": "30450221009707a956c94fb829e1c14e050e2e2e925b5f9b5a9b5c739d866d54e8948a4d2e02202f05e24b2f0233248da3bac6343abd16e23da5a158f8431be8c05b81be4c154a[ALL] 0396caf2fc5b7526975c452d665804457fd287c73e25a0025fe59dd88a61c735db",
          "hex": "4830450221009707a956c94fb829e1c14e050e2e2e925b5f9b5a9b5c739d866d54e8948a4d2e02202f05e24b2f0233248da3bac6343abd16e23da5a158f8431be8c05b81be4c154a01210396caf2fc5b7526975c452d665804457fd287c73e25a0025fe59dd88a61c735db"
        },
        "sequence": 4294967293
      },
      {
        "txid": "1a21df71936f50f72a28bdf9b265e5669cc50f5b7573ba77c533bdaa08590fe1",
        "vout": 0,
        "scriptSig": {
          "asm": "304402201068855260c6b16ef60684b6e367b0d0ce0c9cc190bc6fae8c8cf7c482b1b2b7022033e70897218c69283bdb5315bd7181cf96862bec5c6b9a1f7ee13e799e4ac448[ALL] 0396caf2fc5b7526975c452d665804457fd287c73e25a0025fe59dd88a61c735db",
          "hex": "47304402201068855260c6b16ef60684b6e367b0d0ce0c9cc190bc6fae8c8cf7c482b1b2b7022033e70897218c69283bdb5315bd7181cf96862bec5c6b9a1f7ee13e799e4ac44801210396caf2fc5b7526975c452d665804457fd287c73e25a0025fe59dd88a61c735db"
        },
        "sequence": 4294967293
      },
      {
        "txid": "0c29f03a0a5cf2c338bcc7d279510628a7b5e62ad4f96c59336ff51710e894c5",
        "vout": 0,
        "scriptSig": {
          "asm": "3045022100f5d65b52b02b85313ce8d6f0f2299f0205ffc273580974e87c0d4ed0ff6c7d3d02204b8c0c4d115084c3e3b29b79b51938ed763124fadc96b9e75bdfa04ecb4dbbcf[ALL] 0396caf2fc5b7526975c452d665804457fd287c73e25a0025fe59dd88a61c735db",
          "hex": "483045022100f5d65b52b02b85313ce8d6f0f2299f0205ffc273580974e87c0d4ed0ff6c7d3d02204b8c0c4d115084c3e3b29b79b51938ed763124fadc96b9e75bdfa04ecb4dbbcf01210396caf2fc5b7526975c452d665804457fd287c73e25a0025fe59dd88a61c735db"
        },
        "sequence": 4294967293
      },
      {
        "txid": "569329e46c8078c14a6012737b0c520da3fd0741b5b5a98773cb19b7621f6f3f",
        "vout": 0,
        "scriptSig": {
          "asm": "30440220308fc668fd22354c50cd93af6b9cfa02fc444b3476b17f9191f7d1f23a360fbf022019a55dfca913e2ba1ce5a8c10047ea5bc726cba4046c306da89cdffd8d954c3a[ALL] 0396caf2fc5b7526975c452d665804457fd287c73e25a0025fe59dd88a61c735db",
          "hex": "4730440220308fc668fd22354c50cd93af6b9cfa02fc444b3476b17f9191f7d1f23a360fbf022019a55dfca913e2ba1ce5a8c10047ea5bc726cba4046c306da89cdffd8d954c3a01210396caf2fc5b7526975c452d665804457fd287c73e25a0025fe59dd88a61c735db"
        },
        "sequence": 4294967293
      }
    ],
    "vout": [
      {
        "value": 1.00455398,
        "n": 0,
        "scriptPubKey": {
          "asm": "OP_HASH160 9f95ba786db3afb2052804ea7945c3e5479bd074 OP_EQUAL",
          "desc": "addr(3GEpjMdDnT6GKjSxUojSYt7UQz8s56JwjJ)#wtzmdxrj",
          "hex": "a9149f95ba786db3afb2052804ea7945c3e5479bd07487",
          "address": "3GEpjMdDnT6GKjSxUojSYt7UQz8s56JwjJ",
          "type": "scripthash"
        }
      },
      {
        "value": 0.00344803,
        "n": 1,
        "scriptPubKey": {
          "asm": "OP_HASH160 9baa094d1a9f68c22f49228a760bb73695cbfa3a OP_EQUAL",
          "desc": "addr(3Ft6McGtc2Dr5kkiiDmb4PSrPQAu9rEq3c)#advqwcuj",
          "hex": "a9149baa094d1a9f68c22f49228a760bb73695cbfa3a87",
          "address": "3Ft6McGtc2Dr5kkiiDmb4PSrPQAu9rEq3c",
          "type": "scripthash"
        }
      },
      {
        "value": 0.00092872,
        "n": 2,
        "scriptPubKey": {
          "asm": "0 742d660d7077258430040c0fe114d6490cee7cc3",
          "desc": "addr(bc1qwskkvrtswujcgvqyps87z9xkfyxwulxrasadyr)#zm469c94",
          "hex": "0014742d660d7077258430040c0fe114d6490cee7cc3",
          "address": "bc1qwskkvrtswujcgvqyps87z9xkfyxwulxrasadyr",
          "type": "witness_v0_keyhash"
        }
      }
    ],
    "hex": "010000000bf6caa9c815d7057191fe101dcec19da5dc9aa130b7713005d1df1c36af0280f2000000006a473044022005c059272466eb985d7423242efb654b091d6f4f7ac6f22006a873abb5769f7d02201c37aad50ffcb5fd2ad4df83f722351ae0825345d5940400da2777c3c026462201210396caf2fc5b7526975c452d665804457fd287c73e25a0025fe59dd88a61c735dbfdfffffffc03f549b6e4dd9026194ca7696ce69062b86a14112f92b77f22f5d0a55e7496000000006b483045022100b00df4b0578ec22f76a368ddd9e2e7f6003e6ee7a5063d90e2b78e0829b555450220164f295fe4303bfc4a916945830ea7012bcb0d545c8e3610556e47d0a70d2c1801210396caf2fc5b7526975c452d665804457fd287c73e25a0025fe59dd88a61c735dbfdffffff1b36def255bef66962cd2adee199e03a63b0933a6c36ddd4f44e00953b39cc8a000000006a4730440220716c12d017cd42b646e3a7c324387660f65309aec185f92c25acf8631a10848802204e4e4c92656676f0add33dfab458c7abce4536a9f6ed00e2f5eac1173da9c1ca01210396caf2fc5b7526975c452d665804457fd287c73e25a0025fe59dd88a61c735dbfdffffff154342956fb660c595dfb3a49515ffa99f680c5c1908c9f2e0c8abb4f444eb76000000006a47304402203dc44ca8ae7e61c2757e87af7f087122c0ae81541e3379a9b105f13bd24bf8e102206da4f3113cc0f0bb823bdc45cbb8361f74857e0362403e0b019e653aaa3672ac01210396caf2fc5b7526975c452d665804457fd287c73e25a0025fe59dd88a61c735dbfdffffff92cc0b1d060a7048f1e71974d72912edcebf1c8c3cff6d2226c59a8e305aa54e000000006b4830450221008ebedcf877d2a5d4d4adc59daee2ce972c02e59512d73b645f2c321b2002b8b3022053a36c479a7d0a7387886032279b85e6277134131847d3c561502bd9c0e47f7401210396caf2fc5b7526975c452d665804457fd287c73e25a0025fe59dd88a61c735dbfdffffffb42446198aa01d8fb3fdcff38c1aa2cb03293ca5c509a1f5f07dd38885e9c525000000006b483045022100bd0391fd59fdc8f3ea8bef09bd322cb39a3ef25f77ab86af14d35b471e0fecb002203b82882c23b36861c5b5d45f41ad563546e66a148bdca06d11fbdf23026cef4101210396caf2fc5b7526975c452d665804457fd287c73e25a0025fe59dd88a61c735dbfdffffff0ea5f647befb4e34ba1347a9efeeb4710db23cfd2b830935e47fded7357a4571000000006b4830450221009c997e6005b6d8463c9f340f631970f6cfdc6d5e0ab8c7d8019afb2e4e2cb3910220391e2d4e8dfa5c676354171984fc34e871c16538692b1997b983209fd429cefa01210396caf2fc5b7526975c452d665804457fd287c73e25a0025fe59dd88a61c735dbfdffffffc829b7c94a70537070321ff032d0cddae5d78933d272ceee9f91254747f9ae02000000006b4830450221009707a956c94fb829e1c14e050e2e2e925b5f9b5a9b5c739d866d54e8948a4d2e02202f05e24b2f0233248da3bac6343abd16e23da5a158f8431be8c05b81be4c154a01210396caf2fc5b7526975c452d665804457fd287c73e25a0025fe59dd88a61c735dbfdffffffe10f5908aabd33c577ba73755b0fc59c66e565b2f9bd282af7506f9371df211a000000006a47304402201068855260c6b16ef60684b6e367b0d0ce0c9cc190bc6fae8c8cf7c482b1b2b7022033e70897218c69283bdb5315bd7181cf96862bec5c6b9a1f7ee13e799e4ac44801210396caf2fc5b7526975c452d665804457fd287c73e25a0025fe59dd88a61c735dbfdffffffc594e81017f56f33596cf9d42ae6b5a728065179d2c7bc38c3f25c0a3af0290c000000006b483045022100f5d65b52b02b85313ce8d6f0f2299f0205ffc273580974e87c0d4ed0ff6c7d3d02204b8c0c4d115084c3e3b29b79b51938ed763124fadc96b9e75bdfa04ecb4dbbcf01210396caf2fc5b7526975c452d665804457fd287c73e25a0025fe59dd88a61c735dbfdffffff3f6f1f62b719cb7387a9b5b54107fda30d520c7b7312604ac178806ce4299356000000006a4730440220308fc668fd22354c50cd93af6b9cfa02fc444b3476b17f9191f7d1f23a360fbf022019a55dfca913e2ba1ce5a8c10047ea5bc726cba4046c306da89cdffd8d954c3a01210396caf2fc5b7526975c452d665804457fd287c73e25a0025fe59dd88a61c735dbfdffffff03e6d3fc050000000017a9149f95ba786db3afb2052804ea7945c3e5479bd07487e34205000000000017a9149baa094d1a9f68c22f49228a760bb73695cbfa3a87c86a010000000000160014742d660d7077258430040c0fe114d6490cee7cc300000000",
    "blockhash": "00000000000000000000a353e5108440f94b4011939f06b5988cae9f6028be29",
    "confirmations": 106496,
    "time": 1691584068,
    "blocktime": 1691584068
  },
  {
    "txid": "aadff66e5e2c0fe2eddcc99e0356581372538c02a12e6ea185ed711542620f47",
    "hash": "29133a2ab7c8c0972987e81670d1606fae1f1a3a74f50665cdc3c18c7b0050f8",
    "version": 1,
    "size": 226,
    "vsize": 144,
    "weight": 574,
    "locktime": 0,
    "vin": [
      {
        "txid": "ad07d9a2ea5d091fbe90d893083856d1d8f89c1344eb5427b261883c21cdaea6",
        "vout": 1,
        "scriptSig": {
          "asm": "",
          "hex": ""
        },
        "txinwitness": [
          "3045022100fbe8be0c43221dbf47908290afd6f79ac22dbf33b9786c3a8bbe029dac9557c60220165cb738fd146462a2040408963eee707b87a80a2bb67956cd081b391490701301",
          "02e5908910d2664de358db26343d92edd7eb02d4524c478be29914a0cc733fdf09"
        ],
        "sequence": 0
      }
    ],
    "vout": [
      {
        "value": 0.01004414,
        "n": 0,
        "scriptPubKey": {
          "asm": "OP_DUP OP_HASH160 0992d24327d2c30a57bb008134be4f21a1b823ba OP_EQUALVERIFY OP_CHECKSIG",
          "desc": "addr(1scy41LbJoD646iEVHQyHpUeS9sPgp6QS)#ed83lrph",
          "hex": "76a9140992d24327d2c30a57bb008134be4f21a1b823ba88ac",
          "address": "1scy41LbJoD646iEVHQyHpUeS9sPgp6QS",
          "type": "pubkeyhash"
        }
      },
      {
        "value": 0.00761914,
        "n": 1,
        "scriptPubKey": {
          "asm": "0 f52f22371217468f2b364d1a343819cbded2c668",
          "desc": "addr(bc1q75hjydcjzarg72ekf5drgwqee00d93nghns4rf)#wkt7h5vn",
          "hex": "0014f52f22371217468f2b364d1a343819cbded2c668",
          "address": "bc1q75hjydcjzarg72ekf5drgwqee00d93nghns4rf",
          "type": "witness_v0_keyhash"
        }
      }
    ],
    "hex": "01000000000101a6aecd213c8861b22754eb44139cf8d8d156380893d890be1f095deaa2d907ad010000000000000000027e530f00000000001976a9140992d24327d2c30a57bb008134be4f21a1b823ba88ac3aa00b0000000000160014f52f22371217468f2b364d1a343819cbded2c66802483045022100fbe8be0c43221dbf47908290afd6f79ac22dbf33b9786c3a8bbe029dac9557c60220165cb738fd146462a2040408963eee707b87a80a2bb67956cd081b3914907013012102e5908910d2664de358db26343d92edd7eb02d4524c478be29914a0cc733fdf0900000000",
    "blockhash": "00000000000000000000a353e5108440f94b4011939f06b5988cae9f6028be29",
    "confirmations": 106496,
    "time": 1691584068,
    "blocktime": 1691584068
  },
  {
    "txid": "1fc1494eab11b567deef8178ee0c6afa0f96e14b0afe9609da0981dd0998858b",
    "hash": "cacadee69f163d50b8e41b2498825f0984de1278296900014db943c82f99d99b",
    "version": 1,
    "size": 234,
    "vsize": 153,
    "weight": 609,
    "locktime": 0,
    "vin": [
      {
        "txid": "d02a850cd1ec8fe641bfd90276a326e6b730c8eef7d43f57a7ad872e65162eac",
        "vout": 0,
        "scriptSig": {
          "asm": "",
          "hex": ""
        },
        "txinwitness": [
          "3044022004b4fc0abbe22f67aaeb86a4e93589cf2ba8461ee661ae734141ff4e7f15923f02202c0085677b96cc9b5ed41a148c4b3471815244d3eff60ef82b2ca6447a9bca6d01",
          "03ceb3544cb5d89982e2e93d26f9df25d3554e89d84e033258df0fb7e08d3dafab"
        ],
        "sequence": 4294967293
      }
    ],
    "vout": [
      {
        "value": 0.03253726,
        "n": 0,
        "scriptPubKey": {
          "asm": "0 a277262c46e9202aadc1890f5e8b82960be02446",
          "desc": "addr(bc1q5fmjvtzxaysz4twp3y84azuzjc97qfzxnjd7nl)#s0czfaz5",
          "hex": "0014a277262c46e9202aadc1890f5e8b82960be02446",
          "address": "bc1q5fmjvtzxaysz4twp3y84azuzjc97qfzxnjd7nl",
          "type": "witness_v0_keyhash"
        }
      },
      {
        "value": 0.24366662,
        "n": 1,
        "scriptPubKey": {
          "asm": "1 f139b0a2474b448d7c8e3a1d2edd1cbd2aae46b749d9b290484d14dd0223ae28",
          "desc": "rawtr(f139b0a2474b448d7c8e3a1d2edd1cbd2aae46b749d9b290484d14dd0223ae28)#0nmkeksn",
          "hex": "5120f139b0a2474b448d7c8e3a1d2edd1cbd2aae46b749d9b290484d14dd0223ae28",
          "address": "bc1p7yumpgj8fdzg6lyw8gwjahguh542u34hf8vm9yzgf52d6q3r4c5qg45apm",
          "type": "witness_v1_taproot"
        }
      }
    ],
    "hex": "01000000000101ac2e16652e87ada7573fd4f7eec830b7e626a37602d9bf41e68fecd10c852ad00000000000fdffffff02dea5310000000000160014a277262c46e9202aadc1890f5e8b82960be0244646ce730100000000225120f139b0a2474b448d7c8e3a1d2edd1cbd2aae46b749d9b290484d14dd0223ae2802473044022004b4fc0abbe22f67aaeb86a4e93589cf2ba8461ee661ae734141ff4e7f15923f02202c0085677b96cc9b5ed41a148c4b3471815244d3eff60ef82b2ca6447a9bca6d012103ceb3544cb5d89982e2e93d26f9df25d3554e89d84e033258df0fb7e08d3dafab00000000",
    "blockhash": "00000000000000000000a353e5108440f94b4011939f06b5988cae9f6028be29",
    "confirmations": 106496,
    "time": 1691584068,
    "blocktime": 1691584068
  },
  {
    "txid": "fe4e73ade833aaa5bab2b54552177cb2f3341867df292e4ac54f887363ff7301",
    "hash": "d158d4fc3de927775a2622eba02f304995fcb2f06dfcb032d6d1fe4853165379",
    "version": 2,
    "size": 193,
    "vsize": 111,
    "weight": 442,
    "locktime": 0,
    "vin": [
      {
        "txid": "5572c0eb2755c8b1148b8f64a2f7ac5c14607ae3d77f964cbbbebd0c868f3188",
        "vout": 0,
        "scriptSig": {
          "asm": "",
          "hex": ""
        },
        "txinwitness": [
          "3045022100fe79e626914a92190db786c6e42f1d088d7eef944e467edfeeff6f519b0cd23f0220630082551a193e857d1e99eaccd9c224adb85f8abf8cc05a14d83c1048f0f81201",
          "0349cc0594e15f3a7fdaae05d25dc6cb705e0888a2734c9d3626b1e3e8585f4337"
        ],
        "sequence": 4294967293
      }
    ],
    "vout": [
      {
        "value": 0.002156,
        "n": 0,
        "scriptPubKey": {
          "asm": "OP_HASH160 1b0856ad30c4b096cae6dfc0f208f18e4452cbee OP_EQUAL",
          "desc": "addr(349xA6dXoTWowD414mkyQBnvagm5qzKM5D)#znvhrv6k",
          "hex": "a9141b0856ad30c4b096cae6dfc0f208f18e4452cbee87",
          "address": "349xA6dXoTWowD414mkyQBnvagm5qzKM5D",
          "type": "scripthash"
        }
      }
    ],
    "hex": "0200000000010188318f860cbdbebb4c967fd7e37a60145cacf7a2648f8b14b1c85527ebc072550000000000fdffffff01304a03000000000017a9141b0856ad30c4b096cae6dfc0f208f18e4452cbee8702483045022100fe79e626914a92190db786c6e42f1d088d7eef944e467edfeeff6f519b0cd23f0220630082551a193e857d1e99eaccd9c224adb85f8abf8cc05a14d83c1048f0f81201210349cc0594e15f3a7fdaae05d25dc6cb705e0888a2734c9d3626b1e3e8585f433700000000",
    "blockhash": "00000000000000000000a353e5108440f94b4011939f06b5988cae9f6028be29",
    "confirmations": 106497,
    "time": 1691584068,
    "blocktime": 1691584068
  },
  {
    "txid": "fe4e73ade833aaa5bab2b54552177cb2f3341867df292e4ac54f887363ff7301",
    "hash": "d158d4fc3de927775a2622eba02f304995fcb2f06dfcb032d6d1fe4853165379",
    "version": 2,
    "size": 193,
    "vsize": 111,
    "weight": 442,
    "locktime": 0,
    "vin": [
      {
        "txid": "5572c0eb2755c8b1148b8f64a2f7ac5c14607ae3d77f964cbbbebd0c868f3188",
        "vout": 0,
        "scriptSig": {
          "asm": "",
          "hex": ""
        },
        "txinwitness": [
          "3045022100fe79e626914a92190db786c6e42f1d088d7eef944e467edfeeff6f519b0cd23f0220630082551a193e857d1e99eaccd9c224adb85f8abf8cc05a14d83c1048f0f81201",
          "0349cc0594e15f3a7fdaae05d25dc6cb705e0888a2734c9d3626b1e3e8585f4337"
        ],
        "sequence": 4294967293
      }
    ],
    "vout": [
      {
        "value": 0.002156,
        "n": 0,
        "scriptPubKey": {
          "asm": "OP_HASH160 1b0856ad30c4b096cae6dfc0f208f18e4452cbee OP_EQUAL",
          "desc": "addr(349xA6dXoTWowD414mkyQBnvagm5qzKM5D)#znvhrv6k",
          "hex": "a9141b0856ad30c4b096cae6dfc0f208f18e4452cbee87",
          "address": "349xA6dXoTWowD414mkyQBnvagm5qzKM5D",
          "type": "scripthash"
        }
      }
    ],
    "hex": "0200000000010188318f860cbdbebb4c967fd7e37a60145cacf7a2648f8b14b1c85527ebc072550000000000fdffffff01304a03000000000017a9141b0856ad30c4b096cae6dfc0f208f18e4452cbee8702483045022100fe79e626914a92190db786c6e42f1d088d7eef944e467edfeeff6f519b0cd23f0220630082551a193e857d1e99eaccd9c224adb85f8abf8cc05a14d83c1048f0f81201210349cc0594e15f3a7fdaae05d25dc6cb705e0888a2734c9d3626b1e3e8585f433700000000",
    "blockhash": "00000000000000000000a353e5108440f94b4011939f06b5988cae9f6028be29",
    "confirmations": 106497,
    "time": 1691584068,
    "blocktime": 1691584068
  }
]
